{
	"contracts/YulTypes.sol": {
		"YulTypes": {
			"abi": [
				{
					"inputs": [],
					"name": "demoString",
					"outputs": [
						{
							"internalType": "bytes32",
							"name": "",
							"type": "bytes32"
						},
						{
							"internalType": "string",
							"name": "",
							"type": "string"
						}
					],
					"stateMutability": "pure",
					"type": "function"
				},
				{
					"inputs": [],
					"name": "getHex",
					"outputs": [
						{
							"internalType": "uint256",
							"name": "",
							"type": "uint256"
						}
					],
					"stateMutability": "pure",
					"type": "function"
				},
				{
					"inputs": [],
					"name": "getNumber",
					"outputs": [
						{
							"internalType": "uint256",
							"name": "",
							"type": "uint256"
						}
					],
					"stateMutability": "pure",
					"type": "function"
				}
			],
			"devdoc": {
				"kind": "dev",
				"methods": {},
				"version": 1
			},
			"evm": {
				"assembly": "    /* \"contracts/YulTypes.sol\":60:662  contract YulTypes {... */\n  mstore(0x40, 0x80)\n  callvalue\n  dup1\n  iszero\n  tag_1\n  jumpi\n  0x00\n  dup1\n  revert\ntag_1:\n  pop\n  dataSize(sub_0)\n  dup1\n  dataOffset(sub_0)\n  0x00\n  codecopy\n  0x00\n  return\nstop\n\nsub_0: assembly {\n        /* \"contracts/YulTypes.sol\":60:662  contract YulTypes {... */\n      mstore(0x40, 0x80)\n      callvalue\n      dup1\n      iszero\n      tag_1\n      jumpi\n      0x00\n      dup1\n      revert\n    tag_1:\n      pop\n      jumpi(tag_2, lt(calldatasize, 0x04))\n      shr(0xe0, calldataload(0x00))\n      dup1\n      0x4d9dd966\n      eq\n      tag_3\n      jumpi\n      dup1\n      0xeef1d4a0\n      eq\n      tag_4\n      jumpi\n      dup1\n      0xf2c9ecd8\n      eq\n      tag_5\n      jumpi\n    tag_2:\n      0x00\n      dup1\n      revert\n        /* \"contracts/YulTypes.sol\":242:391  function getHex() external pure returns(uint256) {... */\n    tag_3:\n        /* \"contracts/YulTypes.sol\":351:354  0xa */\n      0x0a\n        /* \"contracts/YulTypes.sol\":242:391  function getHex() external pure returns(uint256) {... */\n    tag_6:\n      mload(0x40)\n        /* \"#utility.yul\":160:185   */\n      swap1\n      dup2\n      mstore\n        /* \"#utility.yul\":148:150   */\n      0x20\n        /* \"#utility.yul\":133:151   */\n      add\n        /* \"contracts/YulTypes.sol\":242:391  function getHex() external pure returns(uint256) {... */\n    tag_8:\n      mload(0x40)\n      dup1\n      swap2\n      sub\n      swap1\n      return\n        /* \"contracts/YulTypes.sol\":397:659  function demoString() external pure returns (bytes32, string memory) {... */\n    tag_4:\n        /* \"contracts/YulTypes.sol\":629:649  abi.encode(myString) */\n      0x40\n      dup1\n      mload\n        /* \"contracts/YulTypes.sol\":547:581  \"[..............................]\" */\n      0x5b2e2e2e2e2e2e2e2e2e2e2e2e2e2e2e2e2e2e2e2e2e2e2e2e2e2e2e2e2e2e5d\n        /* \"contracts/YulTypes.sol\":629:649  abi.encode(myString) */\n      0x20\n      dup1\n      dup4\n      add\n        /* \"#utility.yul\":160:185   */\n      dup3\n      swap1\n      mstore\n        /* \"contracts/YulTypes.sol\":629:649  abi.encode(myString) */\n      dup4\n      mload\n      dup1\n      dup5\n      sub\n      swap1\n      swap2\n      add\n      dup2\n      mstore\n        /* \"#utility.yul\":133:151   */\n      swap2\n      dup4\n      add\n        /* \"contracts/YulTypes.sol\":629:649  abi.encode(myString) */\n      swap1\n      swap3\n      mstore\n        /* \"contracts/YulTypes.sol\":397:659  function demoString() external pure returns (bytes32, string memory) {... */\n      mload(0x40)\n      tag_8\n      swap3\n      swap2\n      swap1\n      tag_13\n      jump\t// in\n        /* \"contracts/YulTypes.sol\":85:236  function getNumber() external pure returns(uint256) {... */\n    tag_5:\n        /* \"contracts/YulTypes.sol\":197:199  42 */\n      0x2a\n        /* \"contracts/YulTypes.sol\":85:236  function getNumber() external pure returns(uint256) {... */\n      jump(tag_6)\n        /* \"#utility.yul\":196:815   */\n    tag_13:\n        /* \"#utility.yul\":373:379   */\n      dup3\n        /* \"#utility.yul\":362:371   */\n      dup2\n        /* \"#utility.yul\":355:380   */\n      mstore\n        /* \"#utility.yul\":336:340   */\n      0x00\n        /* \"#utility.yul\":399:401   */\n      0x20\n        /* \"#utility.yul\":437:439   */\n      0x40\n        /* \"#utility.yul\":432:434   */\n      dup2\n        /* \"#utility.yul\":421:430   */\n      dup5\n        /* \"#utility.yul\":417:435   */\n      add\n        /* \"#utility.yul\":410:440   */\n      mstore\n        /* \"#utility.yul\":469:475   */\n      dup4\n        /* \"#utility.yul\":463:476   */\n      mload\n        /* \"#utility.yul\":512:518   */\n      dup1\n        /* \"#utility.yul\":507:509   */\n      0x40\n        /* \"#utility.yul\":496:505   */\n      dup6\n        /* \"#utility.yul\":492:510   */\n      add\n        /* \"#utility.yul\":485:519   */\n      mstore\n        /* \"#utility.yul\":537:538   */\n      0x00\n        /* \"#utility.yul\":547:687   */\n    tag_25:\n        /* \"#utility.yul\":561:567   */\n      dup2\n        /* \"#utility.yul\":558:559   */\n      dup2\n        /* \"#utility.yul\":555:568   */\n      lt\n        /* \"#utility.yul\":547:687   */\n      iszero\n      tag_27\n      jumpi\n        /* \"#utility.yul\":656:670   */\n      dup6\n      dup2\n      add\n        /* \"#utility.yul\":652:675   */\n      dup4\n      add\n        /* \"#utility.yul\":646:676   */\n      mload\n        /* \"#utility.yul\":622:639   */\n      dup6\n      dup3\n      add\n        /* \"#utility.yul\":641:643   */\n      0x60\n        /* \"#utility.yul\":618:644   */\n      add\n        /* \"#utility.yul\":611:677   */\n      mstore\n        /* \"#utility.yul\":576:586   */\n      dup3\n      add\n        /* \"#utility.yul\":547:687   */\n      jump(tag_25)\n    tag_27:\n        /* \"#utility.yul\":551:554   */\n      pop\n        /* \"#utility.yul\":736:737   */\n      0x00\n        /* \"#utility.yul\":731:733   */\n      0x60\n        /* \"#utility.yul\":722:728   */\n      dup3\n        /* \"#utility.yul\":711:720   */\n      dup7\n        /* \"#utility.yul\":707:729   */\n      add\n        /* \"#utility.yul\":703:734   */\n      add\n        /* \"#utility.yul\":696:738   */\n      mstore\n        /* \"#utility.yul\":806:808   */\n      0x60\n        /* \"#utility.yul\":799:801   */\n      0x1f\n        /* \"#utility.yul\":795:802   */\n      not\n        /* \"#utility.yul\":790:792   */\n      0x1f\n        /* \"#utility.yul\":782:788   */\n      dup4\n        /* \"#utility.yul\":778:793   */\n      add\n        /* \"#utility.yul\":774:803   */\n      and\n        /* \"#utility.yul\":763:772   */\n      dup6\n        /* \"#utility.yul\":759:804   */\n      add\n        /* \"#utility.yul\":755:809   */\n      add\n        /* \"#utility.yul\":747:809   */\n      swap3\n      pop\n      pop\n      pop\n        /* \"#utility.yul\":196:815   */\n      swap4\n      swap3\n      pop\n      pop\n      pop\n      jump\t// out\n\n    auxdata: 0xa264697066735822122043d7b2421821d54fc61e037a0adb8b3860c89c4189036d9605817f85d0f1b45264736f6c63430008140033\n}\n",
				"bytecode": {
					"linkReferences": {},
					"object": "608060405234801561000f575f80fd5b5061012a8061001d5f395ff3fe6080604052348015600e575f80fd5b5060043610603a575f3560e01c80634d9dd96614603e578063eef1d4a0146054578063f2c9ecd814609d575b5f80fd5b600a5b6040519081526020015b60405180910390f35b604080517f5b2e2e2e2e2e2e2e2e2e2e2e2e2e2e2e2e2e2e2e2e2e2e2e2e2e2e2e2e2e2e5d602080830182905283518084039091018152918301909252604051604b92919060a3565b602a6041565b8281525f602060408184015283518060408501525f5b8181101560d35785810183015185820160600152820160b9565b505f606082860101526060601f19601f83011685010192505050939250505056fea264697066735822122043d7b2421821d54fc61e037a0adb8b3860c89c4189036d9605817f85d0f1b45264736f6c63430008140033",
					"opcodes": "PUSH1 0x80 PUSH1 0x40 MSTORE CALLVALUE DUP1 ISZERO PUSH2 0xF JUMPI PUSH0 DUP1 REVERT JUMPDEST POP PUSH2 0x12A DUP1 PUSH2 0x1D PUSH0 CODECOPY PUSH0 RETURN INVALID PUSH1 0x80 PUSH1 0x40 MSTORE CALLVALUE DUP1 ISZERO PUSH1 0xE JUMPI PUSH0 DUP1 REVERT JUMPDEST POP PUSH1 0x4 CALLDATASIZE LT PUSH1 0x3A JUMPI PUSH0 CALLDATALOAD PUSH1 0xE0 SHR DUP1 PUSH4 0x4D9DD966 EQ PUSH1 0x3E JUMPI DUP1 PUSH4 0xEEF1D4A0 EQ PUSH1 0x54 JUMPI DUP1 PUSH4 0xF2C9ECD8 EQ PUSH1 0x9D JUMPI JUMPDEST PUSH0 DUP1 REVERT JUMPDEST PUSH1 0xA JUMPDEST PUSH1 0x40 MLOAD SWAP1 DUP2 MSTORE PUSH1 0x20 ADD JUMPDEST PUSH1 0x40 MLOAD DUP1 SWAP2 SUB SWAP1 RETURN JUMPDEST PUSH1 0x40 DUP1 MLOAD PUSH32 0x5B2E2E2E2E2E2E2E2E2E2E2E2E2E2E2E2E2E2E2E2E2E2E2E2E2E2E2E2E2E2E5D PUSH1 0x20 DUP1 DUP4 ADD DUP3 SWAP1 MSTORE DUP4 MLOAD DUP1 DUP5 SUB SWAP1 SWAP2 ADD DUP2 MSTORE SWAP2 DUP4 ADD SWAP1 SWAP3 MSTORE PUSH1 0x40 MLOAD PUSH1 0x4B SWAP3 SWAP2 SWAP1 PUSH1 0xA3 JUMP JUMPDEST PUSH1 0x2A PUSH1 0x41 JUMP JUMPDEST DUP3 DUP2 MSTORE PUSH0 PUSH1 0x20 PUSH1 0x40 DUP2 DUP5 ADD MSTORE DUP4 MLOAD DUP1 PUSH1 0x40 DUP6 ADD MSTORE PUSH0 JUMPDEST DUP2 DUP2 LT ISZERO PUSH1 0xD3 JUMPI DUP6 DUP2 ADD DUP4 ADD MLOAD DUP6 DUP3 ADD PUSH1 0x60 ADD MSTORE DUP3 ADD PUSH1 0xB9 JUMP JUMPDEST POP PUSH0 PUSH1 0x60 DUP3 DUP7 ADD ADD MSTORE PUSH1 0x60 PUSH1 0x1F NOT PUSH1 0x1F DUP4 ADD AND DUP6 ADD ADD SWAP3 POP POP POP SWAP4 SWAP3 POP POP POP JUMP INVALID LOG2 PUSH5 0x6970667358 0x22 SLT KECCAK256 NUMBER 0xD7 0xB2 TIMESTAMP XOR 0x21 0xD5 0x4F 0xC6 0x1E SUB PUSH27 0xADB8B3860C89C4189036D9605817F85D0F1B45264736F6C634300 ADDMOD EQ STOP CALLER "
				},
				"gasEstimates": {
					"creation": {
						"codeDepositCost": "59600",
						"executionCost": "109",
						"totalCost": "59709"
					},
					"external": {
						"demoString()": "infinite",
						"getHex()": "147",
						"getNumber()": "202"
					}
				},
				"methodIdentifiers": {
					"demoString()": "eef1d4a0",
					"getHex()": "4d9dd966",
					"getNumber()": "f2c9ecd8"
				}
			},
			"storageLayout": {
				"storage": [],
				"types": null
			},
			"userdoc": {
				"kind": "user",
				"methods": {},
				"version": 1
			}
		}
	}
}