{
	"contracts/YulBasicOperations.sol": {
		"YulBasicOperations": {
			"abi": [
				{
					"inputs": [
						{
							"internalType": "uint256",
							"name": "myNumber",
							"type": "uint256"
						}
					],
					"name": "isPrime",
					"outputs": [
						{
							"internalType": "bool",
							"name": "prime",
							"type": "bool"
						}
					],
					"stateMutability": "pure",
					"type": "function"
				},
				{
					"inputs": [],
					"name": "testPrime",
					"outputs": [],
					"stateMutability": "pure",
					"type": "function"
				}
			],
			"devdoc": {
				"kind": "dev",
				"methods": {},
				"version": 1
			},
			"evm": {
				"assembly": "    /* \"contracts/YulBasicOperations.sol\":60:690  contract YulBasicOperations {... */\n  mstore(0x40, 0x80)\n  callvalue\n  dup1\n  iszero\n  tag_1\n  jumpi\n  0x00\n  dup1\n  revert\ntag_1:\n  pop\n  dataSize(sub_0)\n  dup1\n  dataOffset(sub_0)\n  0x00\n  codecopy\n  0x00\n  return\nstop\n\nsub_0: assembly {\n        /* \"contracts/YulBasicOperations.sol\":60:690  contract YulBasicOperations {... */\n      mstore(0x40, 0x80)\n      callvalue\n      dup1\n      iszero\n      tag_1\n      jumpi\n      0x00\n      dup1\n      revert\n    tag_1:\n      pop\n      jumpi(tag_2, lt(calldatasize, 0x04))\n      shr(0xe0, calldataload(0x00))\n      dup1\n      0x22cddfc2\n      eq\n      tag_3\n      jumpi\n      dup1\n      0x42703494\n      eq\n      tag_4\n      jumpi\n    tag_2:\n      0x00\n      dup1\n      revert\n        /* \"contracts/YulBasicOperations.sol\":515:687  function testPrime() external pure {... */\n    tag_3:\n      tag_5\n      tag_6\n      jump\t// in\n    tag_5:\n      stop\n        /* \"contracts/YulBasicOperations.sol\":97:507  function isPrime(uint256 myNumber) public pure returns (bool prime) {... */\n    tag_4:\n      tag_7\n      tag_8\n      calldatasize\n      0x04\n      tag_9\n      jump\t// in\n    tag_8:\n      tag_10\n      jump\t// in\n    tag_7:\n      mload(0x40)\n        /* \"#utility.yul\":364:378   */\n      swap1\n      iszero\n        /* \"#utility.yul\":357:379   */\n      iszero\n        /* \"#utility.yul\":339:380   */\n      dup2\n      mstore\n        /* \"#utility.yul\":327:329   */\n      0x20\n        /* \"#utility.yul\":312:330   */\n      add\n        /* \"contracts/YulBasicOperations.sol\":97:507  function isPrime(uint256 myNumber) public pure returns (bool prime) {... */\n      mload(0x40)\n      dup1\n      swap2\n      sub\n      swap1\n      return\n        /* \"contracts/YulBasicOperations.sol\":515:687  function testPrime() external pure {... */\n    tag_6:\n        /* \"contracts/YulBasicOperations.sol\":569:579  isPrime(2) */\n      tag_14\n        /* \"contracts/YulBasicOperations.sol\":577:578  2 */\n      0x02\n        /* \"contracts/YulBasicOperations.sol\":569:576  isPrime */\n      tag_10\n        /* \"contracts/YulBasicOperations.sol\":569:579  isPrime(2) */\n      jump\t// in\n    tag_14:\n        /* \"contracts/YulBasicOperations.sol\":561:593  require(isPrime(2), \"not prime\") */\n      tag_15\n      jumpi\n      mload(0x40)\n      shl(0xe5, 0x461bcd)\n      dup2\n      mstore\n        /* \"#utility.yul\":593:595   */\n      0x20\n        /* \"contracts/YulBasicOperations.sol\":561:593  require(isPrime(2), \"not prime\") */\n      0x04\n      dup3\n      add\n        /* \"#utility.yul\":575:596   */\n      mstore\n        /* \"#utility.yul\":632:633   */\n      0x09\n        /* \"#utility.yul\":612:630   */\n      0x24\n      dup3\n      add\n        /* \"#utility.yul\":605:634   */\n      mstore\n      shl(0xb8, 0x6e6f74207072696d65)\n        /* \"#utility.yul\":650:668   */\n      0x44\n      dup3\n      add\n        /* \"#utility.yul\":643:682   */\n      mstore\n        /* \"#utility.yul\":699:717   */\n      0x64\n      add\n        /* \"contracts/YulBasicOperations.sol\":561:593  require(isPrime(2), \"not prime\") */\n    tag_16:\n      mload(0x40)\n      dup1\n      swap2\n      sub\n      swap1\n      revert\n    tag_15:\n        /* \"contracts/YulBasicOperations.sol\":612:622  isPrime(3) */\n      tag_18\n        /* \"contracts/YulBasicOperations.sol\":620:621  3 */\n      0x03\n        /* \"contracts/YulBasicOperations.sol\":612:619  isPrime */\n      tag_10\n        /* \"contracts/YulBasicOperations.sol\":612:622  isPrime(3) */\n      jump\t// in\n    tag_18:\n        /* \"contracts/YulBasicOperations.sol\":604:636  require(isPrime(3), \"not prime\") */\n      tag_19\n      jumpi\n      mload(0x40)\n      shl(0xe5, 0x461bcd)\n      dup2\n      mstore\n        /* \"#utility.yul\":593:595   */\n      0x20\n        /* \"contracts/YulBasicOperations.sol\":604:636  require(isPrime(3), \"not prime\") */\n      0x04\n      dup3\n      add\n        /* \"#utility.yul\":575:596   */\n      mstore\n        /* \"#utility.yul\":632:633   */\n      0x09\n        /* \"#utility.yul\":612:630   */\n      0x24\n      dup3\n      add\n        /* \"#utility.yul\":605:634   */\n      mstore\n      shl(0xb8, 0x6e6f74207072696d65)\n        /* \"#utility.yul\":650:668   */\n      0x44\n      dup3\n      add\n        /* \"#utility.yul\":643:682   */\n      mstore\n        /* \"#utility.yul\":699:717   */\n      0x64\n      add\n        /* \"contracts/YulBasicOperations.sol\":604:636  require(isPrime(3), \"not prime\") */\n      tag_16\n        /* \"#utility.yul\":391:723   */\n      jump\n        /* \"contracts/YulBasicOperations.sol\":604:636  require(isPrime(3), \"not prime\") */\n    tag_19:\n        /* \"contracts/YulBasicOperations.sol\":655:665  isPrime(7) */\n      tag_21\n        /* \"contracts/YulBasicOperations.sol\":663:664  7 */\n      0x07\n        /* \"contracts/YulBasicOperations.sol\":655:662  isPrime */\n      tag_10\n        /* \"contracts/YulBasicOperations.sol\":655:665  isPrime(7) */\n      jump\t// in\n    tag_21:\n        /* \"contracts/YulBasicOperations.sol\":647:679  require(isPrime(7), \"not prime\") */\n      tag_22\n      jumpi\n      mload(0x40)\n      shl(0xe5, 0x461bcd)\n      dup2\n      mstore\n        /* \"#utility.yul\":593:595   */\n      0x20\n        /* \"contracts/YulBasicOperations.sol\":647:679  require(isPrime(7), \"not prime\") */\n      0x04\n      dup3\n      add\n        /* \"#utility.yul\":575:596   */\n      mstore\n        /* \"#utility.yul\":632:633   */\n      0x09\n        /* \"#utility.yul\":612:630   */\n      0x24\n      dup3\n      add\n        /* \"#utility.yul\":605:634   */\n      mstore\n      shl(0xb8, 0x6e6f74207072696d65)\n        /* \"#utility.yul\":650:668   */\n      0x44\n      dup3\n      add\n        /* \"#utility.yul\":643:682   */\n      mstore\n        /* \"#utility.yul\":699:717   */\n      0x64\n      add\n        /* \"contracts/YulBasicOperations.sol\":647:679  require(isPrime(7), \"not prime\") */\n      tag_16\n        /* \"#utility.yul\":391:723   */\n      jump\n        /* \"contracts/YulBasicOperations.sol\":647:679  require(isPrime(7), \"not prime\") */\n    tag_22:\n        /* \"contracts/YulBasicOperations.sol\":515:687  function testPrime() external pure {... */\n      jump\t// out\n        /* \"contracts/YulBasicOperations.sol\":97:507  function isPrime(uint256 myNumber) public pure returns (bool prime) {... */\n    tag_10:\n        /* \"contracts/YulBasicOperations.sol\":184:188  true */\n      0x01\n        /* \"contracts/YulBasicOperations.sol\":259:260  2 */\n      0x02\n        /* \"contracts/YulBasicOperations.sol\":245:261  div(myNumber, 2) */\n      dup1\n      dup4\n      div\n        /* \"contracts/YulBasicOperations.sol\":241:265  add(div(myNumber, 2), 1) */\n      dup3\n      add\n      swap1\n        /* \"contracts/YulBasicOperations.sol\":279:489  for { let i := 2 } lt(i, halfNumber) { i := add(i, 1) }... */\n    tag_25:\n        /* \"contracts/YulBasicOperations.sol\":304:314  halfNumber */\n      dup2\n        /* \"contracts/YulBasicOperations.sol\":301:302  i */\n      dup2\n        /* \"contracts/YulBasicOperations.sol\":298:315  lt(i, halfNumber) */\n      lt\n        /* \"contracts/YulBasicOperations.sol\":279:489  for { let i := 2 } lt(i, halfNumber) { i := add(i, 1) }... */\n      iszero\n      tag_27\n      jumpi\n        /* \"contracts/YulBasicOperations.sol\":391:392  i */\n      dup1\n        /* \"contracts/YulBasicOperations.sol\":381:389  myNumber */\n      dup5\n        /* \"contracts/YulBasicOperations.sol\":377:393  mod(myNumber, i) */\n      mod\n        /* \"contracts/YulBasicOperations.sol\":367:474  if iszero(mod(myNumber, i)) {... */\n      tag_28\n      jumpi\n        /* \"contracts/YulBasicOperations.sol\":427:428  0 */\n      0x00\n        /* \"contracts/YulBasicOperations.sol\":418:428  prime := 0 */\n      swap3\n      pop\n        /* \"contracts/YulBasicOperations.sol\":450:455  break */\n      jump(tag_27)\n        /* \"contracts/YulBasicOperations.sol\":367:474  if iszero(mod(myNumber, i)) {... */\n    tag_28:\n        /* \"contracts/YulBasicOperations.sol\":330:331  1 */\n      0x01\n        /* \"contracts/YulBasicOperations.sol\":323:332  add(i, 1) */\n      add\n        /* \"contracts/YulBasicOperations.sol\":279:489  for { let i := 2 } lt(i, halfNumber) { i := add(i, 1) }... */\n      jump(tag_25)\n    tag_27:\n        /* \"contracts/YulBasicOperations.sol\":283:297  { let i := 2 } */\n      pop\n      pop\n        /* \"contracts/YulBasicOperations.sol\":97:507  function isPrime(uint256 myNumber) public pure returns (bool prime) {... */\n      swap2\n      swap1\n      pop\n      jump\t// out\n        /* \"#utility.yul\":14:194   */\n    tag_9:\n        /* \"#utility.yul\":73:79   */\n      0x00\n        /* \"#utility.yul\":126:128   */\n      0x20\n        /* \"#utility.yul\":114:123   */\n      dup3\n        /* \"#utility.yul\":105:112   */\n      dup5\n        /* \"#utility.yul\":101:124   */\n      sub\n        /* \"#utility.yul\":97:129   */\n      slt\n        /* \"#utility.yul\":94:146   */\n      iszero\n      tag_31\n      jumpi\n        /* \"#utility.yul\":142:143   */\n      0x00\n        /* \"#utility.yul\":139:140   */\n      dup1\n        /* \"#utility.yul\":132:144   */\n      revert\n        /* \"#utility.yul\":94:146   */\n    tag_31:\n      pop\n        /* \"#utility.yul\":165:188   */\n      calldataload\n      swap2\n        /* \"#utility.yul\":14:194   */\n      swap1\n      pop\n      jump\t// out\n\n    auxdata: 0xa2646970667358221220cabe7274ff39e5531b0863e18fea9a2f79fa5e05b3c6d30f7f78a156f6151bde64736f6c63430008140033\n}\n",
				"bytecode": {
					"linkReferences": {},
					"object": "608060405234801561000f575f80fd5b506101b48061001d5f395ff3fe608060405234801561000f575f80fd5b5060043610610034575f3560e01c806322cddfc2146100385780634270349414610042575b5f80fd5b610040610069565b005b610055610050366004610167565b610136565b604051901515815260200160405180910390f35b6100736002610136565b6100b05760405162461bcd60e51b81526020600482015260096024820152686e6f74207072696d6560b81b60448201526064015b60405180910390fd5b6100ba6003610136565b6100f25760405162461bcd60e51b81526020600482015260096024820152686e6f74207072696d6560b81b60448201526064016100a7565b6100fc6007610136565b6101345760405162461bcd60e51b81526020600482015260096024820152686e6f74207072696d6560b81b60448201526064016100a7565b565b600160028083048201905b8181101561016057808406610158575f9250610160565b600101610141565b5050919050565b5f60208284031215610177575f80fd5b503591905056fea2646970667358221220cabe7274ff39e5531b0863e18fea9a2f79fa5e05b3c6d30f7f78a156f6151bde64736f6c63430008140033",
					"opcodes": "PUSH1 0x80 PUSH1 0x40 MSTORE CALLVALUE DUP1 ISZERO PUSH2 0xF JUMPI PUSH0 DUP1 REVERT JUMPDEST POP PUSH2 0x1B4 DUP1 PUSH2 0x1D PUSH0 CODECOPY PUSH0 RETURN INVALID PUSH1 0x80 PUSH1 0x40 MSTORE CALLVALUE DUP1 ISZERO PUSH2 0xF JUMPI PUSH0 DUP1 REVERT JUMPDEST POP PUSH1 0x4 CALLDATASIZE LT PUSH2 0x34 JUMPI PUSH0 CALLDATALOAD PUSH1 0xE0 SHR DUP1 PUSH4 0x22CDDFC2 EQ PUSH2 0x38 JUMPI DUP1 PUSH4 0x42703494 EQ PUSH2 0x42 JUMPI JUMPDEST PUSH0 DUP1 REVERT JUMPDEST PUSH2 0x40 PUSH2 0x69 JUMP JUMPDEST STOP JUMPDEST PUSH2 0x55 PUSH2 0x50 CALLDATASIZE PUSH1 0x4 PUSH2 0x167 JUMP JUMPDEST PUSH2 0x136 JUMP JUMPDEST PUSH1 0x40 MLOAD SWAP1 ISZERO ISZERO DUP2 MSTORE PUSH1 0x20 ADD PUSH1 0x40 MLOAD DUP1 SWAP2 SUB SWAP1 RETURN JUMPDEST PUSH2 0x73 PUSH1 0x2 PUSH2 0x136 JUMP JUMPDEST PUSH2 0xB0 JUMPI PUSH1 0x40 MLOAD PUSH3 0x461BCD PUSH1 0xE5 SHL DUP2 MSTORE PUSH1 0x20 PUSH1 0x4 DUP3 ADD MSTORE PUSH1 0x9 PUSH1 0x24 DUP3 ADD MSTORE PUSH9 0x6E6F74207072696D65 PUSH1 0xB8 SHL PUSH1 0x44 DUP3 ADD MSTORE PUSH1 0x64 ADD JUMPDEST PUSH1 0x40 MLOAD DUP1 SWAP2 SUB SWAP1 REVERT JUMPDEST PUSH2 0xBA PUSH1 0x3 PUSH2 0x136 JUMP JUMPDEST PUSH2 0xF2 JUMPI PUSH1 0x40 MLOAD PUSH3 0x461BCD PUSH1 0xE5 SHL DUP2 MSTORE PUSH1 0x20 PUSH1 0x4 DUP3 ADD MSTORE PUSH1 0x9 PUSH1 0x24 DUP3 ADD MSTORE PUSH9 0x6E6F74207072696D65 PUSH1 0xB8 SHL PUSH1 0x44 DUP3 ADD MSTORE PUSH1 0x64 ADD PUSH2 0xA7 JUMP JUMPDEST PUSH2 0xFC PUSH1 0x7 PUSH2 0x136 JUMP JUMPDEST PUSH2 0x134 JUMPI PUSH1 0x40 MLOAD PUSH3 0x461BCD PUSH1 0xE5 SHL DUP2 MSTORE PUSH1 0x20 PUSH1 0x4 DUP3 ADD MSTORE PUSH1 0x9 PUSH1 0x24 DUP3 ADD MSTORE PUSH9 0x6E6F74207072696D65 PUSH1 0xB8 SHL PUSH1 0x44 DUP3 ADD MSTORE PUSH1 0x64 ADD PUSH2 0xA7 JUMP JUMPDEST JUMP JUMPDEST PUSH1 0x1 PUSH1 0x2 DUP1 DUP4 DIV DUP3 ADD SWAP1 JUMPDEST DUP2 DUP2 LT ISZERO PUSH2 0x160 JUMPI DUP1 DUP5 MOD PUSH2 0x158 JUMPI PUSH0 SWAP3 POP PUSH2 0x160 JUMP JUMPDEST PUSH1 0x1 ADD PUSH2 0x141 JUMP JUMPDEST POP POP SWAP2 SWAP1 POP JUMP JUMPDEST PUSH0 PUSH1 0x20 DUP3 DUP5 SUB SLT ISZERO PUSH2 0x177 JUMPI PUSH0 DUP1 REVERT JUMPDEST POP CALLDATALOAD SWAP2 SWAP1 POP JUMP INVALID LOG2 PUSH5 0x6970667358 0x22 SLT KECCAK256 0xCA 0xBE PUSH19 0x74FF39E5531B0863E18FEA9A2F79FA5E05B3C6 0xD3 0xF PUSH32 0x78A156F6151BDE64736F6C634300081400330000000000000000000000000000 "
				},
				"gasEstimates": {
					"creation": {
						"codeDepositCost": "87200",
						"executionCost": "133",
						"totalCost": "87333"
					},
					"external": {
						"isPrime(uint256)": "infinite",
						"testPrime()": "infinite"
					}
				},
				"methodIdentifiers": {
					"isPrime(uint256)": "42703494",
					"testPrime()": "22cddfc2"
				}
			},
			"storageLayout": {
				"storage": [],
				"types": null
			},
			"userdoc": {
				"kind": "user",
				"methods": {},
				"version": 1
			}
		}
	}
}