{
	"data": {
		"bytecode": {
			"linkReferences": {},
			"object": "608060405234801561000f575f80fd5b506101b48061001d5f395ff3fe608060405234801561000f575f80fd5b5060043610610034575f3560e01c806322cddfc2146100385780634270349414610042575b5f80fd5b610040610069565b005b610055610050366004610167565b610136565b604051901515815260200160405180910390f35b6100736002610136565b6100b05760405162461bcd60e51b81526020600482015260096024820152686e6f74207072696d6560b81b60448201526064015b60405180910390fd5b6100ba6003610136565b6100f25760405162461bcd60e51b81526020600482015260096024820152686e6f74207072696d6560b81b60448201526064016100a7565b6100fc6007610136565b6101345760405162461bcd60e51b81526020600482015260096024820152686e6f74207072696d6560b81b60448201526064016100a7565b565b600160028083048201905b8181101561016057808406610158575f9250610160565b600101610141565b5050919050565b5f60208284031215610177575f80fd5b503591905056fea2646970667358221220cabe7274ff39e5531b0863e18fea9a2f79fa5e05b3c6d30f7f78a156f6151bde64736f6c63430008140033",
			"opcodes": "PUSH1 0x80 PUSH1 0x40 MSTORE CALLVALUE DUP1 ISZERO PUSH2 0xF JUMPI PUSH0 DUP1 REVERT JUMPDEST POP PUSH2 0x1B4 DUP1 PUSH2 0x1D PUSH0 CODECOPY PUSH0 RETURN INVALID PUSH1 0x80 PUSH1 0x40 MSTORE CALLVALUE DUP1 ISZERO PUSH2 0xF JUMPI PUSH0 DUP1 REVERT JUMPDEST POP PUSH1 0x4 CALLDATASIZE LT PUSH2 0x34 JUMPI PUSH0 CALLDATALOAD PUSH1 0xE0 SHR DUP1 PUSH4 0x22CDDFC2 EQ PUSH2 0x38 JUMPI DUP1 PUSH4 0x42703494 EQ PUSH2 0x42 JUMPI JUMPDEST PUSH0 DUP1 REVERT JUMPDEST PUSH2 0x40 PUSH2 0x69 JUMP JUMPDEST STOP JUMPDEST PUSH2 0x55 PUSH2 0x50 CALLDATASIZE PUSH1 0x4 PUSH2 0x167 JUMP JUMPDEST PUSH2 0x136 JUMP JUMPDEST PUSH1 0x40 MLOAD SWAP1 ISZERO ISZERO DUP2 MSTORE PUSH1 0x20 ADD PUSH1 0x40 MLOAD DUP1 SWAP2 SUB SWAP1 RETURN JUMPDEST PUSH2 0x73 PUSH1 0x2 PUSH2 0x136 JUMP JUMPDEST PUSH2 0xB0 JUMPI PUSH1 0x40 MLOAD PUSH3 0x461BCD PUSH1 0xE5 SHL DUP2 MSTORE PUSH1 0x20 PUSH1 0x4 DUP3 ADD MSTORE PUSH1 0x9 PUSH1 0x24 DUP3 ADD MSTORE PUSH9 0x6E6F74207072696D65 PUSH1 0xB8 SHL PUSH1 0x44 DUP3 ADD MSTORE PUSH1 0x64 ADD JUMPDEST PUSH1 0x40 MLOAD DUP1 SWAP2 SUB SWAP1 REVERT JUMPDEST PUSH2 0xBA PUSH1 0x3 PUSH2 0x136 JUMP JUMPDEST PUSH2 0xF2 JUMPI PUSH1 0x40 MLOAD PUSH3 0x461BCD PUSH1 0xE5 SHL DUP2 MSTORE PUSH1 0x20 PUSH1 0x4 DUP3 ADD MSTORE PUSH1 0x9 PUSH1 0x24 DUP3 ADD MSTORE PUSH9 0x6E6F74207072696D65 PUSH1 0xB8 SHL PUSH1 0x44 DUP3 ADD MSTORE PUSH1 0x64 ADD PUSH2 0xA7 JUMP JUMPDEST PUSH2 0xFC PUSH1 0x7 PUSH2 0x136 JUMP JUMPDEST PUSH2 0x134 JUMPI PUSH1 0x40 MLOAD PUSH3 0x461BCD PUSH1 0xE5 SHL DUP2 MSTORE PUSH1 0x20 PUSH1 0x4 DUP3 ADD MSTORE PUSH1 0x9 PUSH1 0x24 DUP3 ADD MSTORE PUSH9 0x6E6F74207072696D65 PUSH1 0xB8 SHL PUSH1 0x44 DUP3 ADD MSTORE PUSH1 0x64 ADD PUSH2 0xA7 JUMP JUMPDEST JUMP JUMPDEST PUSH1 0x1 PUSH1 0x2 DUP1 DUP4 DIV DUP3 ADD SWAP1 JUMPDEST DUP2 DUP2 LT ISZERO PUSH2 0x160 JUMPI DUP1 DUP5 MOD PUSH2 0x158 JUMPI PUSH0 SWAP3 POP PUSH2 0x160 JUMP JUMPDEST PUSH1 0x1 ADD PUSH2 0x141 JUMP JUMPDEST POP POP SWAP2 SWAP1 POP JUMP JUMPDEST PUSH0 PUSH1 0x20 DUP3 DUP5 SUB SLT ISZERO PUSH2 0x177 JUMPI PUSH0 DUP1 REVERT JUMPDEST POP CALLDATALOAD SWAP2 SWAP1 POP JUMP INVALID LOG2 PUSH5 0x6970667358 0x22 SLT KECCAK256 0xCA 0xBE PUSH19 0x74FF39E5531B0863E18FEA9A2F79FA5E05B3C6 0xD3 0xF PUSH32 0x78A156F6151BDE64736F6C634300081400330000000000000000000000000000 "
		},
		"gasEstimates": {
			"creation": {
				"codeDepositCost": "87200",
				"executionCost": "133",
				"totalCost": "87333"
			},
			"external": {
				"isPrime(uint256)": "infinite",
				"testPrime()": "infinite"
			}
		},
		"methodIdentifiers": {
			"isPrime(uint256)": "42703494",
			"testPrime()": "22cddfc2"
		}
	},
	"abi": [
		{
			"inputs": [
				{
					"internalType": "uint256",
					"name": "myNumber",
					"type": "uint256"
				}
			],
			"name": "isPrime",
			"outputs": [
				{
					"internalType": "bool",
					"name": "prime",
					"type": "bool"
				}
			],
			"stateMutability": "pure",
			"type": "function"
		},
		{
			"inputs": [],
			"name": "testPrime",
			"outputs": [],
			"stateMutability": "pure",
			"type": "function"
		}
	]
}